:020000040000FA
:04000000C0EF3FF01E
:107F80000001C3EF3FF0D388D39AD38C000EAC6EC0
:107F9000000EAB6E000EAD6E000EAE6EAC9CAC98DB
:107FA000AC84B896B88AB8880C0EAF6E000EB06E6E
:107FB000000E826E000E8B6E000E0F013A6FC00E27
:107FC000946EAB8EAB88AC8AAB8E410E036E03C051
:107FD000ADFFACA2EEEF3FF0F0EF3FF0E9EF3FF086
:107FE000032A060E026E130E016EAE0EE82EFED7A9
:107FF000012EFCD7022EFAD7E7EF3FF000EF00F09A
:020000040020DA
:08000000FFFFFFFFFFFFFFFF00
:020000040030CA
:0E000000FF281F3CFFBF85FF0FC00FE00F4021
:00000001FF
